:1000000024C155C135C134C133C132C131C130C140
:100010002FC12EC12DC12CC12BC12AC129C128C17C
:1000200027C126C125C124C123C142C121C120C18C
:100030001FC11EC151015101510151015101510115
:100040005101510151015101510151015101510120
:1000500051015101510151015101510151016501FC
:100060006501650165016501650165016501650160
:100070006501650165016501650165016501650150
:1000800065016501650165017A017A017A017A01EC
:100090007A017A017A017A017A017A017A017A0188
:1000A0007A017A017A017A017A017A017A017A0178
:1000B00091019101910191019101910191019101B0
:1000C00091019101910191019101910191019101A0
:1000D00091019101910191019101A901A901A90148
:1000E000A901A901A901A901A901A901A901A901C0
:1000F000A901A901A901A901A901A901A901A901B0
:10010000A901A901C201C201C201C201C201C20109
:10011000C201C201C201C201C201C201C201C201C7
:10012000C201C201C201C201C201C201DD01DD0181
:10013000DD01DD01DD01DD01DD01DD01DD01DD01CF
:10014000DD01DD01DD01DD01DD01DD01DD01DD01BF
:10015000DD01DD01DD01F901F901F901F901F90123
:10016000F901F901F901F901F901F901F901F901BF
:10017000F901F901F901F901F901F901F901F901AF
:1001800017021702170217021702170217021702A7
:100190001702170217021702170217021702170297
:1001A0001702170217021702370237023702370207
:1001B0003702370237023702370237023702370277
:1001C0003702370237023702370237023702370267
:1001D00037020000000000000000000000000000E6
:1001E000000000000000000000000000000000000F
:1001F00000000000000000000000000000000000FF
:1002000000000000000000000000000000000000EE
:1002100000000000000000000000000000000000DE
:1002200000000000000000000000000000000000CE
:10023000000000005101510100005101A9013702E5
:1002400000003702A9015101000011241FBECFEFA9
:10025000D4E0DEBFCDBF11E0A0E0B1E0E2ECF5E01C
:1002600002C005900D92A231B107D9F722D0A7C1E3
:10027000C7CE43983B9A06C087EA91E60197F1F70B
:1002800000C0000089B184708823B1F381E08DBB88
:1002900010927A0083B7817F846083BF83B78160C7
:1002A00083BF889583B78E7F83BF1DBA0895189545
:1002B00018952A98229AA2E0B1E062E171E041E04B
:1002C00050E08D91282F2695269526959FEF920F29
:1002D0009330A8F430E0F901EE0FFF1FE20FF31F97
:1002E00087709A0102C0220F331F8A95E2F7C90175
:1002F000209591A1922391A392A1892B82A36A17A1
:100300007B07F9F680E880BF8FE380937E0083E06F
:1003100080937F0086EE809364007894FAE36F2EDA
:10032000F2E07F2EA2E48A2EA2E09A2E04E312E0ED
:10033000DEE0C3ECFF24F394B3E2DB2E89E1E82E88
:1003400092E2B92E2CEFC22E439A3B9A409A389AE9
:1003500087EA91E60197F1F700C0000080E420E011
:1003600030E0D0937C00C0937A0090917A0096FFA1
:1003700004C090917A0096FDFCCF40917800509196
:100380007900240F351F81508111EBCF94E3930F37
:100390009E3208F0A8C020E440E050E0F0927C00DB
:1003A000C0937A0090917A0096FF04C090917A00F1
:1003B00096FDFCCF6091780070917900460F571F31
:1003C00021502111EBCF21E05B3808F48CC040981C
:1003D000389A06C0E7EAF1E63197F1F700C000006D
:1003E00099B194709923B1F3222309F4BAC0F401AE
:1003F0002591349144E452E02115310531F1D09238
:100400008000E09281003093890020938800369527
:10041000279530938B0020938A00E3EDF0E331972A
:10042000F1F700C000001092800010928100E3ED0F
:10043000F0E33197F1F700C00000FA012591349103
:100440004E5F5F4F21153105D1F6B0927C00C0920E
:100450007A0010927B0093B7917F93BF20E030E049
:1004600093B7916093BF889593B79E7F93BF982F62
:100470009F7791110CC099B19470992309F443C0EE
:100480002F5F3F4F2936FAE13F0708F03CC0E0916B
:100490007900F0E0EE0FFF1FEC5CFF4F45915491A7
:1004A000609100017091010146175707F0F0411566
:1004B0005105B9F0672BA9F4D0928000E092810039
:1004C00050938900409388009A0136952795309380
:1004D0008B0020938A00509301014093000120E09B
:1004E00030E08F5FBDCF20E072CF4115510521F77D
:1004F000E7EAF1E63197F1F700C0000010928000C2
:1005000010928100E8CFF301859194912CE332E0C1
:10051000009729F1D0928000E092810090938900A9
:10052000809388009695879590938B0080938A009E
:1005300083ED90E30197F1F700C000001092800076
:1005400010928100E3EDF0E33197F1F700C0000075
:10055000F901859194912E5F3F4F0097D9F689DE7E
:10056000F3CEF8018591949126E332E00097B9F338
:10057000D0928000E092810090938900809388005F
:100580009695879590938B0080938A0083ED90E3F6
:100590000197F1F700C000001092800010928100D6
:1005A000E3EDF0E33197F1F700C00000F901859128
:1005B00094912E5F3F4F0097D9F65BDEC5CEF8943D
:0205C000FFCF6B
:1005C200FFFF08090B0C0D0E0F141518191B1C1D2B
:0205D2001E1FEA
:00000001FF
